{
  "address": "0xb1b45421ABe29A0a67f8b5fD759A37904BCf5510",
  "abi": [
    {
      "inputs": [
        {
          "internalType": "address",
          "name": "registry",
          "type": "address"
        }
      ],
      "stateMutability": "nonpayable",
      "type": "constructor"
    },
    {
      "inputs": [
        {
          "internalType": "address",
          "name": "x",
          "type": "address"
        }
      ],
      "name": "_addressToString",
      "outputs": [
        {
          "internalType": "string",
          "name": "",
          "type": "string"
        }
      ],
      "stateMutability": "pure",
      "type": "function"
    },
    {
      "inputs": [
        {
          "internalType": "bytes1",
          "name": "b",
          "type": "bytes1"
        }
      ],
      "name": "char",
      "outputs": [
        {
          "internalType": "bytes1",
          "name": "c",
          "type": "bytes1"
        }
      ],
      "stateMutability": "pure",
      "type": "function"
    },
    {
      "inputs": [],
      "name": "getTableId",
      "outputs": [
        {
          "internalType": "uint256",
          "name": "",
          "type": "uint256"
        }
      ],
      "stateMutability": "view",
      "type": "function"
    },
    {
      "inputs": [],
      "name": "getTableName",
      "outputs": [
        {
          "internalType": "string",
          "name": "",
          "type": "string"
        }
      ],
      "stateMutability": "view",
      "type": "function"
    },
    {
      "inputs": [
        {
          "internalType": "address",
          "name": "lockAddress",
          "type": "address"
        },
        {
          "internalType": "string",
          "name": "profileId",
          "type": "string"
        },
        {
          "internalType": "string",
          "name": "cid",
          "type": "string"
        }
      ],
      "name": "registerLock",
      "outputs": [],
      "stateMutability": "nonpayable",
      "type": "function"
    }
  ],
  "transactionHash": "0xfc8e1a38b92954e01c0a13454e3e827ffe80d1d6645028ee8e57e18ebb9d46e9",
  "args": [
    "0x4b48841d4b32c4650e4abc117a03fe8b51f38f68"
  ],
  "numDeployments": 5,
  "solcInputHash": "a12a47343f8118f23d53b8a482c3209b",
  "bytecode": "0x60c0604052600460808190526336b0b4b760e11b60a09081526200002791600291906200032e565b503480156200003557600080fd5b5060405162001396380380620013968339810160408190526200005891620003d4565b600380546001600160a01b0319166001600160a01b038316908117909155633a9151b0306002620000954662000194602090811b620004aa17901c565b604051602001620000a892919062000518565b6040516020818303038152906040526040518363ffffffff1660e01b8152600401620000d692919062000600565b6020604051808303816000875af1158015620000f6573d6000803e3d6000fd5b505050506040513d601f19601f820116820180604052508101906200011c919062000644565b60008190555060026200013a466200019460201b620004aa1760201c565b620001526000546200019460201b620004aa1760201c565b60405160200162000166939291906200065e565b604051602081830303815290604052600190805190602001906200018c9291906200032e565b5050620006c9565b60606000620001ae836200024460201b620005461760201c565b60010190506000816001600160401b03811115620001d057620001d0620006b3565b6040519080825280601f01601f191660200182016040528015620001fb576020820181803683370190505b5090508181016020015b600019016f181899199a1a9b1b9c1cb0b131b232b360811b600a86061a8153600a850494508462000236576200023c565b62000205565b509392505050565b6000807a184f03e93ff9f4daa797ed6e38ed64bf6a1f01000000000000000083106200028e577a184f03e93ff9f4daa797ed6e38ed64bf6a1f010000000000000000830492506040015b6d04ee2d6d415b85acef81000000008310620002bb576d04ee2d6d415b85acef8100000000830492506020015b662386f26fc100008310620002da57662386f26fc10000830492506010015b6305f5e1008310620002f3576305f5e100830492506008015b61271083106200030857612710830492506004015b606483106200031b576064830492506002015b600a831062000328576001015b92915050565b8280546200033c9062000406565b90600052602060002090601f016020900481019282620003605760008555620003ab565b82601f106200037b57805160ff1916838001178555620003ab565b82800160010185558215620003ab579182015b82811115620003ab5782518255916020019190600101906200038e565b50620003b9929150620003bd565b5090565b5b80821115620003b95760008155600101620003be565b600060208284031215620003e757600080fd5b81516001600160a01b0381168114620003ff57600080fd5b9392505050565b600181811c908216806200041b57607f821691505b602082108114156200043d57634e487b7160e01b600052602260045260246000fd5b50919050565b8054600090600181811c90808316806200045e57607f831692505b60208084108214156200048157634e487b7160e01b600052602260045260246000fd5b818015620004985760018114620004aa57620004d9565b60ff19861689528489019650620004d9565b60008881526020902060005b86811015620004d15781548b820152908501908301620004b6565b505084890196505b50505050505092915050565b60005b8381101562000502578181015183820152602001620004e8565b8381111562000512576000848401525b50505050565b6c021a922a0aa22902a20a126229609d1b815260006200053c600d83018562000443565b605f60f81b8152835162000558816001840160208801620004e5565b7f2028696420696e7465676572207072696d617279206b65792c206c6f636b4164600192909101918201527f64726573732074657874204e4f54204e554c4c2c2070726f66696c654964207460218201527f657874204e4f54204e554c4c2c2075736572416464726573732074657874204e60418201527f4f54204e554c4c2c206369642074657874204e4f54204e554c4c293b000000006061820152607d01949350505050565b60018060a01b038316815260406020820152600082518060408401526200062f816060850160208701620004e5565b601f01601f1916919091016060019392505050565b6000602082840312156200065757600080fd5b5051919050565b60006200066c828662000443565b605f60f81b808252855162000689816001850160208a01620004e5565b60019201918201528351620006a6816002840160208801620004e5565b0160020195945050505050565b634e487b7160e01b600052604160045260246000fd5b610cbd80620006d96000396000f3fe608060405234801561001057600080fd5b50600436106100575760003560e01c80635d5a33a21461005c57806369f9ad2f1461007a57806388e4f1cb146100a657806388e9a48a146100b7578063bd4c37eb146100ca575b600080fd5b6100646100df565b6040516100719190610679565b60405180910390f35b61008d610088366004610693565b610171565b6040516001600160f81b03199091168152602001610071565b600054604051908152602001610071565b6100646100c53660046106d4565b6101ac565b6100dd6100d8366004610791565b610315565b005b6060600180546100ee90610804565b80601f016020809104026020016040519081016040528092919081815260200182805461011a90610804565b80156101675780601f1061013c57610100808354040283529160200191610167565b820191906000526020600020905b81548152906001019060200180831161014a57829003601f168201915b5050505050905090565b6000600a60f883901c10156101985761018f60f883901c6030610855565b60f81b92915050565b61018f60f883901c6057610855565b919050565b60408051602880825260608281019093526000919060208201818036833701905050905060005b60148110156102ec5760006101e982601361087a565b6101f4906008610891565b6101ff906002610994565b610212906001600160a01b0387166109b6565b60f81b9050600060108260f81c61022991906109ca565b60f81b905060008160f81c601061024091906109ec565b8360f81c61024e9190610a0d565b60f81b905061025c82610171565b85610268866002610891565b8151811061027857610278610a30565b60200101906001600160f81b031916908160001a90535061029881610171565b856102a4866002610891565b6102af906001610a46565b815181106102bf576102bf610a30565b60200101906001600160f81b031916908160001a90535050505080806102e490610a5e565b9150506101d3565b50806040516020016102fe9190610a95565b604051602081830303815290604052915050919050565b60005461035e5760405162461bcd60e51b81526020600482015260126024820152715461626c65206e6f7420637265617465642160701b60448201526064015b60405180910390fd5b6040516317aa5fb760e11b815233600482015283906001600160a01b03821690632f54bf6e90602401602060405180830381865afa1580156103a4573d6000803e3d6000fd5b505050506040513d601f19601f820116820180604052508101906103c89190610abf565b6104015760405162461bcd60e51b815260206004820152600a6024820152694e6f74206f776e65722160b01b6044820152606401610355565b6003546000546001600160a01b039091169063eaf5d04e9030906001610426896101ac565b88610430336101ac565b89604051602001610445959493929190610aec565b6040516020818303038152906040526040518463ffffffff1660e01b815260040161047293929190610c57565b600060405180830381600087803b15801561048c57600080fd5b505af11580156104a0573d6000803e3d6000fd5b5050505050505050565b606060006104b783610546565b60010190506000816001600160401b038111156104d6576104d66106ef565b6040519080825280601f01601f191660200182016040528015610500576020820181803683370190505b5090508181016020015b600019016f181899199a1a9b1b9c1cb0b131b232b360811b600a86061a8153600a85049450846105395761053e565b61050a565b509392505050565b60008072184f03e93ff9f4daa797ed6e38ed64bf6a1f0160401b83106105855772184f03e93ff9f4daa797ed6e38ed64bf6a1f0160401b830492506040015b6904ee2d6d415b85acef8160201b83106105af576904ee2d6d415b85acef8160201b830492506020015b662386f26fc1000083106105cd57662386f26fc10000830492506010015b6305f5e10083106105e5576305f5e100830492506008015b61271083106105f957612710830492506004015b6064831061060b576064830492506002015b600a8310610617576001015b92915050565b60005b83811015610638578181015183820152602001610620565b83811115610647576000848401525b50505050565b6000815180845261066581602086016020860161061d565b601f01601f19169290920160200192915050565b60208152600061068c602083018461064d565b9392505050565b6000602082840312156106a557600080fd5b81356001600160f81b03198116811461068c57600080fd5b80356001600160a01b03811681146101a757600080fd5b6000602082840312156106e657600080fd5b61068c826106bd565b634e487b7160e01b600052604160045260246000fd5b600082601f83011261071657600080fd5b81356001600160401b0380821115610730576107306106ef565b604051601f8301601f19908116603f01168101908282118183101715610758576107586106ef565b8160405283815286602085880101111561077157600080fd5b836020870160208301376000602085830101528094505050505092915050565b6000806000606084860312156107a657600080fd5b6107af846106bd565b925060208401356001600160401b03808211156107cb57600080fd5b6107d787838801610705565b935060408601359150808211156107ed57600080fd5b506107fa86828701610705565b9150509250925092565b600181811c9082168061081857607f821691505b6020821081141561083957634e487b7160e01b600052602260045260246000fd5b50919050565b634e487b7160e01b600052601160045260246000fd5b600060ff821660ff84168060ff038211156108725761087261083f565b019392505050565b60008282101561088c5761088c61083f565b500390565b60008160001904831182151516156108ab576108ab61083f565b500290565b600181815b808511156108eb5781600019048211156108d1576108d161083f565b808516156108de57918102915b93841c93908002906108b5565b509250929050565b60008261090257506001610617565b8161090f57506000610617565b8160018114610925576002811461092f5761094b565b6001915050610617565b60ff8411156109405761094061083f565b50506001821b610617565b5060208310610133831016604e8410600b841016171561096e575081810a610617565b61097883836108b0565b806000190482111561098c5761098c61083f565b029392505050565b600061068c83836108f3565b634e487b7160e01b600052601260045260246000fd5b6000826109c5576109c56109a0565b500490565b600060ff8316806109dd576109dd6109a0565b8060ff84160491505092915050565b600060ff821660ff84168160ff048111821515161561098c5761098c61083f565b600060ff821660ff841680821015610a2757610a2761083f565b90039392505050565b634e487b7160e01b600052603260045260246000fd5b60008219821115610a5957610a5961083f565b500190565b6000600019821415610a7257610a7261083f565b5060010190565b60008151610a8b81856020860161061d565b9290920192915050565b61060f60f31b815260008251610ab281600285016020870161061d565b9190910160020192915050565b600060208284031215610ad157600080fd5b8151801515811461068c57600080fd5b62272c2760e81b9052565b6b024a729a2a92a1024a72a27960a51b81526000600c6000885481600182811c915080831680610b1d57607f831692505b6020808410821415610b3d57634e487b7160e01b86526022600452602486fd5b818015610b515760018114610b6657610b97565b60ff1986168a890152848a0188019650610b97565b60008f81526020902060005b86811015610b8d5781548c82018b0152908501908301610b72565b505087858b010196505b50507f20286c6f636b416464726573732c2070726f66696c6549642c20757365724164855250730c8e4cae6e65840c6d2c85240ac8298aa8aa640560631b602085015260348401602760f81b81529450610bf38186018c610a79565b945050505050610c0281610ae1565b610c0f6003820187610a79565b9050610c1a81610ae1565b610c276003820186610a79565b9050610c3281610ae1565b610c3f6003820185610a79565b6227293b60e81b815260030198975050505050505050565b60018060a01b0384168152826020820152606060408201526000610c7e606083018461064d565b9594505050505056fea2646970667358221220730ad369d113c2c925e85e0707ce1c1a943be2fef0dc82bc553b41927d72212b64736f6c634300080c0033",
  "devdoc": {
    "kind": "dev",
    "methods": {},
    "version": 1
  },
  "userdoc": {
    "kind": "user",
    "methods": {},
    "version": 1
  },
  "storageLayout": {
    "storage": [
      {
        "astId": 1250,
        "contract": "contracts/Main.sol:Main",
        "label": "_tableId",
        "offset": 0,
        "slot": "0",
        "type": "t_uint256"
      },
      {
        "astId": 1252,
        "contract": "contracts/Main.sol:Main",
        "label": "_tableName",
        "offset": 0,
        "slot": "1",
        "type": "t_string_storage"
      },
      {
        "astId": 1255,
        "contract": "contracts/Main.sol:Main",
        "label": "_prefix",
        "offset": 0,
        "slot": "2",
        "type": "t_string_storage"
      },
      {
        "astId": 1258,
        "contract": "contracts/Main.sol:Main",
        "label": "_tableland",
        "offset": 0,
        "slot": "3",
        "type": "t_contract(ITablelandTables)1225"
      }
    ],
    "types": {
      "t_contract(ITablelandTables)1225": {
        "encoding": "inplace",
        "label": "contract ITablelandTables",
        "numberOfBytes": "20"
      },
      "t_string_storage": {
        "encoding": "bytes",
        "label": "string",
        "numberOfBytes": "32"
      },
      "t_uint256": {
        "encoding": "inplace",
        "label": "uint256",
        "numberOfBytes": "32"
      }
    }
  }
}